{"abi":[{"type":"function","name":"verifyProof","inputs":[{"name":"proof","type":"bytes","internalType":"bytes"},{"name":"instances","type":"uint256[]","internalType":"uint256[]"}],"outputs":[{"name":"","type":"bool","internalType":"bool"}],"stateMutability":"nonpayable"}],"bytecode":{"object":"0x608060405234801561001057600080fd5b5061245e806100206000396000f3fe608060405234801561001057600080fd5b506004361061002b5760003560e01c80631e8e1e1314610030575b600080fd5b61004361003e366004612363565b610057565b604051901515815260200160405180910390f35b6000610263565b60008060008435602086013588821086169450888110851694508860038a8b858609850908898283099289526020890191909152149290921696604094850196509390940193505050565b60016020536021600090812092830682529190915260200190565b6000838351602085015b602087038110156100f0578781518309808452602093840193909250016100ce565b8781518309915060208352602080840152602060408401528160608401526002880360808401528760a084015260208360c08560055afa851693508251915085602081016020850394505b828110156101635789855185098a84518609908452601f19958601959094509092019161013b565b8981518509945089825185099490915292909252509095945050505050565b81604052826060526000604060006080600060065afa9091169392505050565b816040526000604060006060600060075afa90911692915050565b8160c0528260e05260006040608080608060065afa9091169392505050565b8160c0526000604060806060608060075afa90911692915050565b81600052826020526107405160405261076051606052610780516080526107a05160a0528360c0528460e0526107c051610100526107e0516101205261080051610140526108205161016052600060206000610180600060085afa600051921690911695945050505050565b7f064487a965a9285f2928604033221bb08890aa70bd3b69ef3b811cfe634a86216105a081905260006105c08190529081527f30644e72e131a029b85045b68181585d97816a916871ca8d3c208c16d87cfd47907f30644e72e131a029b85045b68181585d2833e84879b9709143e1f593f000000190610c843515610c206044351416600116906020610ca4805b8082101561031457813580845286119490941693602092830192909101906102f1565b5060649250610d8090506101e45b80841015610341576103368784868861005e565b945094509450610322565b5060009182208581068252909152602090810161010083015b808410156103795761036e8784868861005e565b94509450945061035a565b5060009182208581068252909152602090810161039685826100a9565b905061020083015b808410156103bd576103b28784868861005e565b94509450945061039e565b5060009182208581068252909152602090810161010083015b808410156103f5576103ea8784868861005e565b9450945094506103d6565b5060009182208581068252909152602090810161062083015b80841015610431578335808452861194909416936020938401939092019161040e565b5060009182208581068252909152602090810161044e85826100a9565b905061045c8683858761005e565b600090812088810690945292909252935091506020905061047f8582848661005e565b92509250925050507f064487a965a9285f2928604033221bb08890aa70bd3b69ef3b811cfe634a86216105a05260006105c052600e6105e0527f30638ce1a7661b6337a964756aa75257c6bf4778d89789ab819ce60c19b04001610600527f2337acd19f40bf2b2aa212849e9a0c07d626d9ca335d73a09119dbe6eaab3cac610620527f2f9c1d051b2a29bd1d13a09c1489aec5303c2fb2ac7d853ee7a58fdb65b90d7d610640527f2c34760cd8ba6180d92ad9da798faeb6fbf85f3f63d3dfca54b3b798e4f5f37e6106605260006106805260006106a05260006106c05260006106e0526001610700526002610720527f198e9393920d483a7260bfb731fb5d25f1aa493335a9e71297e485b7aef312c2610740527f1800deef121f1e76426a00665e5c4479674322d4f75edadd46debd5cd992f6ed610760527f090689d0585ff075ec9e99ad690c3395bc4b313370b38ef355acdadcd122975b610780527f12c85ea5db8c6deb4aab71808dcb408fe3d1e7690c43d37b4ce6cc0166fa7daa6107a0527f186282957db913abd99f91db59fe69922e95040603ef44c0bd7aa3adeef8f5ac6107c0527f17944351223333f260ddc3b4af45191b856689eda9eab5cbcddbbe570ce860d26107e0527f06d971ff4a7467c3ec596ed6efc674572e32fd6f52b721f97e35b0b3d3546753610800527f06ecdb9f9567f59ed2eee36e1e1d58797fd13cc97fafc2910f5e8a12f202fa9a610820527f27c1eb482334ed5ca4e5f90f1d28ce0f70a47a67e2106c06f46049a4e6c2d1c7610840527f1f6c1db75934944fbf142f868541ee8455a2828efff83776d8f56be0b3831d0f610860527f15cdfbe8a8f5ff142a313a0ecd1c9ea40ab9e4b975bbaa83de721c6c9c84746f610880527f1a79023046f799df357f1791e019bad9c2b7ca0f24f4cf163c1f93ddefd414806108a0527f1c99cef9b4e79a58b467cc7a2352096d6f604fc5caee830c267b90a40acba2e66108c0527f29e058383e253a56fc701e9d939e473841f13721a8cf45cce82da3a95f74ac106108e0527f30459ae7e6be079e268fec2d95d24552f2e2d02519aa066cd56ef37cf7ace636610900527f097d852a56eac7165b7ca18c1f5e7b638aaac325c796dd2eddc21a2654dfdf30610920527f0c2e03ef02c078efe62bb41271cf9e002ee21feeb94e9d1bc0cbbf7e0801f45f610940527f137bc7b37d7675391c5682ee4211309dcc99bc867335562f819bc5a253075d7c610960527f30521ab75c6bcc89838909e52356664c55b84e05b7139d1f12057b2b67244652610980527f23f2c939823c9027293b59075ea98c6ff5e0055382ad1336d5fb24ecfa9208ba6109a0527f2f0b5e50d6af15a9c7c7c201019aa21813b98b714965eddd3638a138ab1b3ce96109c0527f14546ac1b6d6019e234dcc469b0b167de79699a4db3c27995bdbc635f6aa89256109e0527f2ab96ce4ec4e140393abfc1798518ab744d21270e086b8b203944e9d52936dc2610a00527f2210f7343609e6a56a4038a2e5961d4548ae0367d51dc11b261fa959bdb416e2610a20527f1fcc11a11bd91ad7466cf22a47d57bab674290316d2657782036d11920722a8e610a40527f03e4847681aefa203d63899cdf804a09efb6ac6870fddedd54d1c14572eec983610a60527f224ddc49e43b96647f12587cccab824745cbbc1e31b82f4aa5bb02d4bfe17710610a80527f2e6a8a48c4b3bfa8877ff89768561d882516fb5acf8a0e8b142bf6c39688b2bd610aa0527f211b3a409e4ce43249c2ec39af86eef5d3dde8101208bbe2595f307690ec0a61610ac0527f038a1b4540b33b9a71cf6f0364a20252968ffa69199ce39582159f4a5375e915610ae0527f2270e10846e1552cd870113480cb8ffd181b7a4527b48d6f32be0654f0de1e83610b00527f2e1b513e10bd2c5618eb2462303151a43c6c4a95c50312d8f46519936f126dbf610b20526000610b40526000610b60527f02d3e2fa04719dc4c5f4a76e40803b4debda958bbc1e5301189f8cd5801c506f610b80527f2ae51c64efa03ebc6e0b00546d19e13495062033ffa8ea8f5832cb8a2b3a1864610ba0527f2aa96f87b09191c030ff88b2d379341e9a0c5b6be181cf30b8b0b66a556ebd85610bc0527f0a68fdbff9412948f1eec06dac0c01475c77a300b6ca49f46a0703f8653640ca610be0527eded24bfd49ead8712d129c44be1445f1ea9bc43875ec7a87ca5c8a108be61d610c00527f1aee4955513f9d3773864b59190c40e114b4118b155c37c2cc489136196b94df610c20527f1ec2b2deeb7ab8cf598be7ad402708c951e02aa694d4acb12cfd114cc706f9f4610c40527f18939eaaace87128d1188fa9050541dc4618aa84965aa2a6492257bf13e0c697610c60527f163eaa27f53f731e0ee29fa82da53803dcae547660e917f6b6705f2b5fe3631f610c80527f0a12400bbb4b325ff484df484e5387f8048830a118ddd36734c46a5eba9744c3610ca0527f0e6c9de13a54fbe41e0bf69eba3b6940522984298bda8761f93a35ade8b58f34610cc0527f1a4c5f2338f24f1bb523d0f3e3015bb75b884013156e493862568838f04a6e8b610ce0527f07120e1249ba96be504e6612df70a602a725a0f0e9267e6babcbfaee7a44ca8e610d00527f036a40c0094be6839079c439fc619d212ade1b418973bdd6024a187871f0e29f610d20527f13ab267051d6a77d28fee208708d3b7e8bb36637e441724a5cb96095ed50187a610d40527f262f5493e2aa9d750f56a70fa203b4658b7c9c058097abc6f205bc05941da0aa610d60526106805115610d30576106c0516106e05160206106a05102610ca4016020830260028102600382028335838501358386013583870135896020028801895b818a1015610ce75760208a0199508935811b86019550888a0135811b85019450878a0135811b84019350868a0135811b830192508a81019050610ca9565b50508c60038e8f8788098709088d848509148b169a508c60038e8f8586098509088d828309148b169a5083610e805282610ea05281610ec05280610ee052505050505050505050505b80610d3a57600080fd5b6105e0519250610e00518060005b85811015610d5e57848283099150600101610d48565b50610620519450610f0060066105c0510160200281016105c051610d80576020015b610660515b81831015610da6578681880386088352868882099050602083019250610d85565b50856001870384089350838152610dc48660208301610f00886100c4565b9450610f009150856106005185099350610660515b81831015610dfc5786878285510986098352868882099050602083019250610dd9565b50610f20519650610f409350610fc091505b81841015610e285785845188089650602084019350610e0e565b60009150610ca46105c05160200281015b80821015610e5d578788833588510985089350602082019150602086019550610e39565b505051610f008051610fc05194909152610f2091909152610f4052610f6095909552610f805250610fa092909252610de051600092907f09226b6e22c6f0ca64ec26aad4c86e715b5f898e5e963f25870e56bbe533e9a2906107c4356002818603868183089150868284099250600391508681830891505085818309915050610664356105e435610624358781830888039150879050818308915050858183099650506107e43590506001818603868183089150868284099250600391508681830891505085818309915050610684356106043561064435878183088803915087905081830891505085818309915050848186848909089550506107c4356001818603868183089150868284099250600291508681830891505085818309915050610664356105e4356106243587818309880391508790508183089150508581830991505084818684890908955050610804356002818603868183089150868284099250600391508681830891505085818309915050610684356106043561064435878183098803915087905081830891505085818309915050848186848909089550506107c4356001818603868183089150868284099250600391508681830891505085818309915050610664356105e435610624358703878183088803915087905081830891505085818309915050848186848909089550506107e43560018186038681830891508682840992506002915086818308915050858183099150506106843561060435610644358703878183088803915087905081830891505085818309915050848186848909089550506107e43560028186038681830891508682840992506003915086818308915050858183099150506106643560001986018681830890508681830991505085818309915050848186848909089550506108043560018186038681830887818509935050600387828208915050868184099250508503610684358682820891508682820991505085818309915050848186848909089550506108243560028186038681830891505085818309915050610664356106a43560006105e43561062435898183099150508881830891505061060435610644358981830991505088818308915050878183088803915087905081830891505085818309915050848186848909089550506108043560018186038681830891508682840992506002915086818308915050858183099150506106643560006105e435610624358881830991505087818308915050610604356106443588818309915050878183088803915087905081830891505085818309915050848186848909089550506108443560028186038681830891508682840992506003915086818308915050858183099150506106643560016106243587818309915050610644358781830988039150879050818308915050858183099150508481868489090895505061082435600181860386818308905086818409925050610664356106a435610624358881850993505061064435888185099350508783820988039250879050828208915050858183099150508481868489090895505061084435600181860386818308915086828409925060029150868183089150508581830991505061066435600061062435878183089150506106443587818308880391508790508183089150508581830991505084818684890908955050610844356001818603868183089150868284099250600391508681830891505085818309915050610664356106a43560006106243588818308915050610644358881830891505087818308880391508790508183089150508581830991505084818684890908955050610f8051848561098435830986038208905084818684890908955050610a443584858287038784850908610f40510990508481868489090895505083846109c43586036109e43508610f805109848186848909089550508384610a24358603610a443508610f80510984818684890908955050610dc051610da0516109a435610984358788858a8b6108843588096105e4350808830991508788858a8b6108a4358809610604350808830991508788858a8b6108c43588096106243508088309915087610e005184096000528788858a6000516105e4350808820990508786600051096000528788858a600051610604350808820990508786600051096000528788858a600051610624350808820990508786600051096000528781890383089350505050848586610f6051610f405108830986038208905084818684890908955050610dc051610da051610a04356109e4358788858a8b6108e4358809610644350808830991508788858a8b610904358809610664350808830991508788858a8b610924358809610684350808830991508788858a600051610644350808820990508786600051096000528788858a600051610664350808820990508786600051096000528788858a600051610684350808820990508786600051096000528781890383089350505050848586610f6051610f405108830986038208905084818684890908955050610dc051610da051610a6435610a44358788858a8b6109443588096106c4350808830991508788858a8b610964358809610fa0510808830991508788858a6000516106c4350808820990508786600051096000528788858a600051610fa0510808820990508781890383089350505050848586610f6051610f405108830986038208905084818684890908955050610f805184610a84358209905084818684890908955050610f405184610a84358209905084818684890908610d8051610da05191975091506106e4358061070435888181878509089250505086828208905060006107443560018981830991506105e4358a8184099050828b038b8184089250507f30644e72e131a029b85045b68181585d2833e84879b9709143e1f593efffee298b81840990508b818308915050610664358b81850993505060008b8184099250508a8284089250809350505088818a8785090891505087838208600094509192508291905080888082610ac435098a03850893508889610a84358b03610aa435088a838609099450505050858682880384088788610f4051610f60510889036001080991505084818684890908955050610f805184610ae4358209905084818684890908955050610f405184610ae4358209905084818684890908610d8051610da05191975091506106e435806107043588818187850908925050508682820890506000610764356001898183099150610604358a8184099050828b038b8184089250507f30644e72e131a029b85045b68181585d2833e84879b9709143e1f593efffee298b81840990508b818308915050610684358b81850993505060008b8184099250508a8284089250809350505088818a8785090891505087838208600094509192508291905080888082610b2435098a03850893508889610ae4358b03610b0435088a838609099450505050858682880384088788610f4051610f60510889036001080991505084818684890908955050610f805184610b44358209905084818684890908955050610f405184610b44358209905084818684890908610da05190965090506107243585828208905060006107843560018881830991506105e43589818409928a039290508983830892507f30644e72e131a029b85045b68181585d2833e84879b9709143e1f593effff8019150898284099250898382089250505080915050868382086000935090508181888082610b8435098a03830891508889610b44358b03610b6435088a838709099450508788828a038608898a610f4051610f6051088b0360010809935050505084818684890908955050610f805184610ba4358209905084818684890908955050610f405184610ba4358209905084818684890908610da05190965090506107243585828208905060006107a43560018881830991506106043589818409928a039290508983830892507f30644e72e131a029b85045b68181585d2833e84879b9709143e1f593effff8019150898284099250898382089250505080915050868382086000935090508181888082610be435098a03830891508889610ba4358b03610bc435088a838709099450508788828a038608898a610f4051610f6051088b0360010809935050505084818684890908955050505081610f20518409610fc0526105a4356000526105c435602052610f005192506105646104a45b81811015611ab357611a9485846101a2565b9250611aa66020830135833585610182565b9250604082039150611a82565b5050600051610fe05260205161100052610e00519250610620516106405183828609915081610360528461034052838186099150816103205283818309915083818309915083818309915083818309915083818309915050806103005250610e605192506103806104006103005b81831015611b3e5784815186038708835260209283019201611b21565b50506103c0516104005250610380516103a051909350829084099250816103e05184099250826104205282600052610380519250816103e0518409610440526103a05161046081905261038051935082908409610480526103c0516001935082908409602052610320516103405190935060008382810386089050836103a05182099050806040528385850383089050836103c05182096060525050610300516103405161036051919450906000848381038708905084858387038808820990508461038051820990508060805284868603840890508485838703850882099050846103c051820990508060a05284868603830890508485848703840882099050846103e051820960c05250506103405161036051909450905060008382810386089050836103c051820990508060e0528385850383089050836103e05182096101005250611c949050826101206000846100c4565b9050600051925082610420526104406104a05b80821015611cc15783858351098252602082019150611ca7565b50506020519250610e205160008384610864358709820890508382820990508384610fc0518709820890506109646108645b81811015611d135785868335890987868609089250602082039150611cf3565b50506108446106a45b81811015611d3c5785868335890987868609089250602082039150611d1c565b50508382820990508384610be4358709820890508382820990508384610b84358709820890508382820990508384610b24358709820890508382820990508384610ac4358709820890508382820990508384610684358709820890506106446105c45b81811015611dbf5785868335890987868609089250602082039150611d9f565b50506104a0525060405160009350829081906106a4359009840892508182610664356060510984089250816104405184099250826104c052610e2051925060008283610a2435608051098208905082836109e43560a05109820890508283610a043560c051098208905082848209905082836109c435608051098208905082836109843560a051098208905082836109a43560c0510982089050826104605182099050806104e05250610e2051925060008283610ba43560e05109820890508283610bc4356101005109820890508284820990508283610b443560e05109820890508283610b64356101005109820890508284820990508283610ae43560e05109820890508283610b04356101005109820890508284820990508283610a843560e05109820890508283610aa4356101005109820890508284820990508283610a443560e05109820890508283610a643561010051098208905082610480518209610500525060205161052052604051606051909350829084086105405260805160a0519093508290840892508160c05184086105605260e0516101005190935082908408610580526000925060806105205b81851015611f8a578051855260209485019401611f72565b5050611f9a8260806000846100c4565b90508161050051606051099250604060806104e05b81831015611fd85784610e4051870995508485825185510987089550601f199283019201611faf565b5050508261102052610e405192506104a4356000526104c435602052612001610e2051826101a2565b905061201461100051610fe05183610182565b9050610d406108005b8181101561205157612032610e2051846101a2565b92506120446020830151835185610182565b925060408203915061201d565b50506102a46101645b8181101561208e5761206f610e2051846101a2565b92506120816020830135833585610182565b925060408203915061205a565b505061012460245b818110156120ca576120ab610e2051846101a2565b92506120bd6020830135833585610182565b9250604082039150612096565b5050610164356080526101843560a0526120ea82610440518509826101dc565b90506120fb60a05160805183610182565b905081610e405184099250610324356080526103443560a052612121610e2051826101dc565b9050612134610304356102e435836101bd565b905061214682610460518509826101dc565b905061215760a05160805183610182565b905081610e405184099250610464356080526104843560a0526104246103245b818110156121ab5761218c610e2051846101dc565b925061219e60208301358335856101bd565b9250604082039150612177565b50506121bd82610480518509826101dc565b90506121ce60a05160805183610182565b9050610700516080526107205160a0526121ed611020518303826101dc565b90506121fe60a05160805183610182565b9050610c0435608052610c243560a05261221d610400518303826101dc565b905061222e60a05160805183610182565b9050610c4435608052610c643560a05261224b610e6051826101dc565b905061225c60a05160805183610182565b90506000516110405260205161106052610c443561108052610c64356110a052610680511561233057610e8051600052610ea051602052610ec051604052610ee051606052611040516080526110605160a0526110805160c0526110a05160e052816101006000200692506122d183826101a2565b90506122e4611060516110405183610182565b90506000516110405260205161106052610ec051600052610ee05160205261230c83826101a2565b905061231f6110a0516110805183610182565b9050600051611080526020516110a0525b6123496110a051611080516110605161104051856101f7565b90508061235557600080fd5b505050600160005260206000f35b6000806000806040858703121561237957600080fd5b843567ffffffffffffffff8082111561239157600080fd5b818701915087601f8301126123a557600080fd5b8135818111156123b457600080fd5b8860208285010111156123c657600080fd5b6020928301965094509086013590808211156123e157600080fd5b818701915087601f8301126123f557600080fd5b81358181111561240457600080fd5b8860208260051b850101111561241957600080fd5b9598949750506020019450505056fea26469706673582212201289cfb580432b35fb3751812047442ff60ed2169281da3d6b02d0d4ed2d957064736f6c63430008140033","linkReferences":{}},"methodIdentifiers":{"verifyProof(bytes,uint256[])":"1e8e1e13"},"id":23}